:020000040800F2
:100000002817002091010008810800082306000835
:100010007D080008F3040008C91F00080000000064
:10002000000000000000000000000000451700086C
:10003000F7040008000000001F020008591800081B
:10004000AB010008AB010008AB010008AB010008E0
:10005000AB010008AB010008AB010008AB010008D0
:10006000AB010008AB010008AB010008AB010008C0
:10007000AB010008AB010008AB010008AB010008B0
:10008000AB010008AB010008AB010008AB010008A0
:10009000AB010008AB010008AB010008AB01000890
:1000A000AB010008AB010008AB010008AB01000880
:1000B000AB010008AB010008AB010008AB01000870
:1000C000AB010008AB010008AB010008AB01000860
:1000D000AB010008D518000885190008391A000876
:1000E000AB010008AB010008AB01000800F002F80A
:1000F00000F03FF80AA090E8000C82448344AAF183
:100100000107DA4501D100F034F8AFF2090EBAE880
:100110000F0013F0010F18BFFB1A43F0010318473B
:1001200080280000A0280000103A24BF78C878C1B9
:10013000FAD8520724BF30C830C144BF04680C60ED
:10014000704700000023002400250026103A28BF35
:1001500078C1FBD8520728BF30C148BF0B60704739
:10016000642900F0D780002070471FB51FBD10B56F
:1001700010BD00F084F91146FFF7F7FF02F04CF9CB
:1001800000F0A2F903B4FFF7F2FF03BC00F0AAF9F4
:100190000948804709480047FEE7FEE7FEE7FEE71B
:1001A000FEE7FEE7FEE7FEE7FEE7FEE70448054957
:1001B000054A064B7047000075180008ED0000085E
:1001C00028110020281700202813002028130020C1
:1001D000EFF3108072B6704780F310887047204CA0
:1001E000204D25604FF0000484F309881E4C4FF029
:1001F000010525701D4C4FF08055256062B6FEE765
:1002000030B41A4C4FF08055256030BC704730B484
:10021000164C4FF08055256030BC704700BF72B659
:10022000EFF3098028B1203880E8F00F1049096801
:10023000086000B50F4880475DF804EB0E480F4991
:100240000A7802700A480E490A680260106890E84D
:10025000F00F203080F309884EF0040E62B670472C
:1002600020ED00E00000FFFFB600002004ED00E0FC
:10027000BC000020C50E0008AB000020AC00002030
:10028000C40000200FB41CB5074B06AA7B44694686
:100290000090059800F0DBF80020694600F0EAF8CD
:1002A0001CBC5DF814FB0000E50100002DE9F041E5
:1002B0000E460446002020622046E168884730B39D
:1002C000252805D0D4E901219047206A401CF2E797
:1002D000E168204600278847050018D0A5F14100B5
:1002E000192802D820354FF40067324629462046A7
:1002F0002760FFF735FF40B1012804D0F61D26F036
:1003000007060836D8E7361DD6E72846DAE7206A1A
:10031000BDE8F0812DE9F0410646002410687529FA
:10032000314616A510D0AFF30080002802DA404213
:1003300013A507E031688A0701D512A502E0490735
:1003400004D511A5012401E0AFF3008000210A22A9
:1003500006F1240709E0B0FBF2FCB0FBF2F302FB6C
:100360001C00303078541846491C0028F3D123462D
:100370002A463046BDE8F04100F00BB8000000000E
:100380002D0000002B000000200000007047704787
:1003900070472DE9F0470D4699469246044600F114
:1003A00024080168880604D5E06921F01001216065
:1003B00000E00120A84201DD471B00E00027A16901
:1003C0007A1902EB0900081AA0612078C00602D44D
:1003D0002046AFF30080002608E0D4E901211AF896
:1003E00006009047206A401C761C20624E45F4DBD4
:1003F0002078C0060AD52046AFF3008006E0D4E995
:10040000012130209047206A401C2062381EA7F14D
:100410000107F4DC07E0D4E9012118F80500904752
:10042000206A401C2062281EA5F10105F3DC20464D
:10043000AFF300802078000602D50220BDE8F087E7
:100440000120FBE701694A1C02610878704700B58A
:100450008FB0CDE901310021059105497944CDE9FD
:10046000031011466846FFF721FF0FB000BD0000E2
:10047000E5FFFFFF0A6802F8010B0A607047754646
:1004800000F02CF8AE4605006946534620F0070000
:10049000854618B020B5FFF789FEBDE820404FF033
:1004A00000064FF000074FF000084FF0000B21F05E
:1004B0000701AC46ACE8C009ACE8C009ACE8C0092B
:1004C000ACE8C0098D46704710B50446AFF3008014
:1004D0002046BDE81040FFF755BE000000487047B9
:1004E000C810002001491820ABBEFEE7260002001C
:1004F000704700BFFEE7704710B5012001F0C8FE4D
:100500000A2001F091FD10BD2DE9F04102460025C1
:100510000026002000230024002791F803C00CF0DF
:100520000F0591F803C00CF0100CBCF1000F03D0C4
:1005300091F802C04CEA050591F800C0BCF1000F2B
:1005400031D0146800202BE04FF0010C0CFA00F3BE
:10055000B1F800C00CEA03069E4220D183004FF0A0
:100560000F0C0CFA03F7BC4305FA03FC4CEA040435
:1005700091F803C0BCF1280F06D14FF0010C0CFA22
:1005800000FCC2F814C00AE091F803C0BCF1480FA7
:1005900005D14FF0010C0CFA00FCC2F810C0401C51
:1005A0000828D1D31460B1F800C0BCF1FF0F34DDCE
:1005B000546800202EE000F1080C4FF0010808FA02
:1005C0000CF3B1F800C00CEA03069E4221D183006F
:1005D0004FF00F0C0CFA03F7BC4305FA03FC4CEA8E
:1005E000040491F803C0BCF1280F05D100F1080CF8
:1005F00008FA0CF8C2F8148091F803C0BCF1480F57
:1006000007D100F1080C4FF0010808FA0CF8C2F805
:100610001080401C0828CED35460BDE8F0810161F1
:10062000704700BFFEE770B5024600240025002396
:100630000020958A138B1B0445EA030626F07F44AD
:1006400004EA01068E4201D1012000E0002070BDC5
:1006500021B1028842F00102028004E002884FF6D4
:10066000FE731A400280704721B1028842F4807202
:10067000028004E002884FF6FF631A400280704750
:1006800021B1028842F40072028004E002884FF631
:10069000FF531A40028070472DE9F04385B00446AD
:1006A0000D460026B1460427DFF8CC80A6884FF619
:1006B000C0700640684600F0DBFFDDF808802F4878
:1006C000B8FBF0F01FFA80F946EA0906A6802088F8
:1006D0004FF6FE710840208000262949286888428C
:1006E0000CD828684000B8FBF0F087B2042F00DA7D
:1006F00004273E4309F10100208427E0E8884BF6F7
:10070000FF71884206D1286800EB4000B8FBF0F08A
:1007100087B209E0286800EBC00101EB0010B8FBCC
:10072000F0F087B247F48047C7F30B0008B947F0F1
:10073000010747F4004006434FF4967009FB00F0B0
:100740004FF47A7190FBF1F0401C2084A68320883E
:1007500040F00100208026884FF6F5300640A8883A
:100760006989084306432680A8892989084320818E
:1007700005B0BDE8F083000000127A0040420F008F
:10078000A086010000B585B00121480500F030FFCA
:100790000121082000F04CFFC020ADF8100003201C
:1007A0008DF812001C208DF8130004A90F48FFF7E4
:1007B000ABFE0020ADF804004BF6FF70ADF806006C
:1007C0000020ADF80800ADF80A004FF48040ADF805
:1007D0000C000748009069460648FFF75DFF0121BD
:1007E0000448FFF735FF05B000BD0000000C0140D4
:1007F000A08601000054004012B141F0010102E066
:100800004FF6FE7319400182704701827047000065
:1008100008B501211C2000F00BFF2020ADF80000DE
:1008200010208DF8030003208DF80200694611485E
:10083000FFF76AFE20210F48FFF7F1FE4FF400504A
:10084000ADF8000069460C48FFF75EFE4FF400511A
:100850000948FFF7E4FE4FF44050ADF8000048208F
:100860008DF8030003208DF8020069460148FFF768
:100870004BFE08BD000C01400010014000BFFEE728
:100880007047000070B5002100230F22C47804B324
:10089000154C246804F4E064C4F5E064210AC1F155
:1008A0000403CA40447804FA03F1847814402143D5
:1008B00009010E4C0678A155047804F01F050124A7
:1008C000AC4005786D11AD0005F1E025C5F800419B
:1008D00009E0047804F01F050124AC40044D0678BB
:1008E000761145F8264070BD0CED00E000E400E014
:1008F00080E100E002490143024A116070470000B4
:100900000000FA050CED00E010B500F013F800F05F
:10091000F3FB00F01BFC00F03BFC00F0C3FB00F01D
:1009200095FB00F0CFFC00F073FC00F099FC00F0A8
:1009300002F810BD7047704706480078012808D1BA
:1009400005480078FF2804D203480078401C02497B
:1009500008707047B6000020A900002010B50024E0
:100960001A480078012830D1FFF732FC04461848B5
:10097000007820B116480078401E154908701448C8
:100980000078F8B913480078E0B900F0FDFC12488F
:100990001249097850F82100114908600F48007881
:1009A0001049097888420DD00D480068806B401CC2
:1009B0000B49096888630C480068401C0A490860B4
:1009C000FFF725FC2046FFF707FC10BDB60000200E
:1009D000A9000020AA000020600B0020AC0000202D
:1009E000C4000020AB0000209000002070B5054638
:1009F00000260F48007808B1002070BDFFF7E8FB23
:100A000006460C480468006820B10A48006840683F
:100A1000084908603046FFF7DFFB3CB10120207039
:100A2000002020816560204600F001FB2046E4E7BD
:100A3000A90000209400002010B500240B48007885
:100A4000012811D1FFF7C4FB04460948007840B9DA
:100A500008480078FF2804D206480078401C054961
:100A600008702046FFF7B8FB10BD0000B60000205C
:100A7000A9000020AA00002010B500241348007827
:100A8000012821D1FFF7A4FB044611480078C0B12A
:100A90000F480078401E0E4908700846007860B97B
:100AA0000C48007828B92046FFF796FB00F032FC8E
:100AB0000AE02046FFF790FB06E02046FFF78CFB9C
:100AC00002E02046FFF788FB10BD0000B6000020C2
:100AD000AA000020A900002010B50B48007890B9AA
:100AE00000F052FC09480078094908700948074994
:100AF000097850F82100084908600846006807494D
:100B00000860FFF76CFB10BDB6000020AC000020B1
:100B1000AB000020600B0020C4000020BC000020BF
:100B2000704700002DE9FE4F06460F4690461C46D2
:100B30004FF00009FFF74CFB81461F48007828B1B1
:100B40004846FFF749FB3C20BDE8FE8F1B4850F8A4
:100B5000240060BB0120194941F824004846FFF7F2
:100B60003BFB002342463946304600F009F98246F5
:100B70000020009001900346024651460290204614
:100B800000F018FC054635B90D48007801280CD155
:100B900000F0C0FB09E0FFF71BFB8146002007497E
:100BA00041F824004846FFF717FB2846CCE74846A3
:100BB000FFF712FB2820C7E7A9000020600B0020E8
:100BC000B60000202DE9F04F85B081468A46934655
:100BD0001C46DDE90F78129D00200390FFF7F8FA1C
:100BE00003902348007830B10398FFF7F5FA3C20D2
:100BF00005B0BDE8F08F1F4850F8240088BB0120E5
:100C00001C4941F824000398FFF7E6FA2A464146BA
:100C1000384600F0DFFC2B465A465146484600F065
:100C2000AFF804901198CDE9008002953A4620462D
:100C30000E9B049900F0BEFB064636B90E480078BC
:100C400001280CD100F066FB09E0FFF7C1FA039020
:100C50000020084941F824000398FFF7BDFA304608
:100C6000C6E7FFE70398FFF7B7FA2820C0E70000C0
:100C7000A9000020600B0020B600002070477047DC
:100C80002DE9F04106460F4614464FF0000815487E
:100C9000007818B112202070BDE8F081FFF798FAB3
:100CA0008046FF2E03D11048006890F832600F484C
:100CB00050F826502DB94046FFF78EFA4320207099
:100CC000EAE7012D05D14046FFF786FA4320207060
:100CD000E2E7EF644046FFF77FFA0020207000BF94
:100CE000DAE70000A9000020BC000020600B002013
:100CF000704700002DE9F04707460D464FF0000A07
:100D0000002028606860FFF763FA8246FF2F03D156
:100D10001948006890F83270184850F827402CB9EC
:100D20005046FFF759FA4320BDE8F087012C04D163
:100D30005046FFF751FA4320F6E7207C00F001000F
:100D400020B95046FFF748FA4520EDE70026D4F8D1
:100D50000C90D4F808805046FFF73EFA00E0761C6D
:100D600058F8041B0029FAD0B0002860A9EB06004F
:100D7000800068600020D7E7BC000020600B0020E6
:100D800070B5044610464FF080750560051F284673
:100D90002C606FF00106051F28462E604FF01236BA
:100DA000051F28462E604FF00336051F28462E608B
:100DB0004FF00236051F28462E607610051F284684
:100DC0002E60051F284629604FF01136051F284662
:100DD0002E604FF01036051F28462E604FF0093662
:100DE000051F28462E604FF00836051F28462E6046
:100DF0004FF00736051F28462E604FF00636051FB8
:100E000028462E604FF00536051F28462E604FF00D
:100E10000436051F28462E6070BD00002DE9F04104
:100E200005464FF00008FFF7D3F98046FF2D05D1A6
:100E30002048006890F83250012608E01D480068FC
:100E400090F83200A84201D1012600E000261A489D
:100E500050F825402CB94046FFF7BEF94820BDE8C0
:100E6000F081012C04D14046FFF7B6F94320F6E7A4
:100E700094F834701148C05D94F8351088430F49D8
:100E8000C8550846C05D30B994F836100C48007853
:100E900088430B49087094F8300040F0080084F84B
:100EA00030004046FFF798F9012E01D100F032FAE8
:100EB0000020D4E7BC000020600B0020AE00002022
:100EC000AD0000207047000070B5054600261748A9
:100ED000007800B170BD1648007800B1FAE71DB384
:100EE000FFF776F906461348006890F83440124838
:100EF000005D1049096891F8351088430E4908557E
:100F00000846005D40B90B48006890F836100B4861
:100F1000007888430949087006480068C562304671
:100F2000FFF75AF900F0F6F900BFD3E7A900002057
:100F3000AA000020BC000020AE000020AD00002070
:100F400070B5002600F072F8FFF742F90646314806
:100F50000068401C2F4908603046FFF73DF92E48D5
:100F60000078012853D12D48007820B1012804D001
:100F7000022809D103E001250BE0002509E0012545
:100F800001202649087004E001250020234908704B
:100F900000BF00BF05B970BD2148046833E0FFF70A
:100FA00017F90646E06A50B3E06A401EE062E06A64
:100FB00028BB94F8300000F0370040B114F8300F2F
:100FC00000F0C800207001206070303C02E000207A
:100FD00084F8310094F8300000F0080078B9343417
:100FE000A0781049097808430E49087020780E4906
:100FF000085C6178084314F834190B4A505464694A
:101000003046FFF7E9F894F832003F28C7D100BF17
:10101000C1E70000D4000020B6000020CC00002072
:10102000C8000020AD000020AE000020704701463F
:1010300000228A72002005E0002301F10B02135404
:10104000421CD0B20828F7D3704700002DE9F041C8
:101050005021114800F02CF900250DE0681C86B2E3
:101060000D4800EB051400EB0617002020706760A8
:101070000AA0E060681C85B2042DEFD3064800EB9F
:10108000051400202070606004A0E060024804495C
:101090000860BDE8F0810000100700203F0000005C
:1010A0009800002070B5C821114800F001F9002314
:1010B0000FE0581C85B203EB83000D4901EB80045F
:1010C00005EB850001EB8006002020706660581C4F
:1010D00083B2092BEDD303EB8300054901EB8004B8
:1010E00000202070606008460249086070BD000062
:1010F000480600209400002000200A4908600A49A0
:1011000008700A4908700A4908700A4908700A49B3
:1011100008600A4908600A4908600A4908600A49E3
:1011200008707047D4000020A9000020AA00002009
:10113000B7000020B600002090000020B80000207A
:10114000A4000020A0000020A800002000210A4ADE
:101150001170002004E00021084A1154411CC8B25B
:101160000828F8D30021064A1170064A1170064A71
:101170001160064A11607047AD000020AE000020EB
:10118000AB000020AC000020C4000020BC00002008
:1011900070B54FF47C71194800F08AF84FF48071F3
:1011A000174800F085F8002413E0601CC5B2C4EBBA
:1011B000C40000EB4000114901EB8003C5EBC50002
:1011C00000EB400001EB80065E610EA0D864601C5D
:1011D000C4B20B2CE9D3C4EBC40000EB40000749B8
:1011E00001EB80030020586106A0D8640020064966
:1011F000086002480549086070BD0000600C0020CE
:10120000600B00203F000000C8000020C00000204C
:1012100000B587B00320002180220A4BCDE90132BE
:10122000CDE903104FF6FF703F23074A00900748AF
:10123000FFF7C8FC06AA06A13F20FFF721FD07B073
:1012400000BD0000600900205C0B0020E9140008CC
:1012500075432F4F532D49492049646C65000000A8
:1012600000B587B00320002180220A4BCDE901326E
:10127000CDE903104FF6FE703E23074A0090074861
:10128000FFF7A0FC06AA06A13E20FFF7F9FC07B075
:1012900000BD0000600700205C0900201115000857
:1012A00075432F4F532D494920537461740000003A
:1012B00004E0002200F8012B4A1E91B20029F8D167
:1012C000704700002DE9F04178211048FFF7F0FF4A
:1012D00000240DE0601C86B204EB44000B4901EBD6
:1012E000C00506EB460001EBC0072F60601C84B20E
:1012F000042CEFD304EB4400044901EBC0050020AB
:101300002860084602490860BDE8F08150100020BE
:10131000D000002010B50024FEF75AFF0446134801
:101320000078F8B912480078E0B900F02DF81148BB
:101330001149097850F82100104908600E480078DA
:101340000F49097888420DD00C480068806B401C1A
:101350000A49096888630B480068401C094908600D
:10136000FEF74EFF2046FEF737FF10BDA900002014
:10137000AA000020600B0020AC000020C400002068
:10138000AB000020900000200649074A1278885CD4
:101390000649095C034A515C01EBC001044A117023
:1013A00070470000A0280008AD000020AE0000201B
:1013B000AC0000202DE9F84F05460F4690469946AF
:1013C000DDE90AAB00200090FEF702FF00903F48E5
:1013D0000468002C74D0183454F8040C3B4908609D
:1013E0000098FEF7F9FE44F8187CA57600202076D8
:1013F0006076606144F814BC44F80CAC44F8108C7E
:101400000C9824F8080C24F8069C0020E077E810DB
:10141000207705F00700E076217F01208840A07743
:10142000E17E01208840607700206060E060A0607D
:101430002062A0626062E062206325A06063183CC5
:10144000002606E0002104F1500040F82610701C30
:10145000C6B2002EF6D02046FFF762FB2046FFF70B
:101460000DFCFEF7B5FE00901A4840F825401A48DA
:10147000006860610020A0611748006810B116483C
:1014800000688461144804603434A07813490978F2
:1014900008431249087020781149085C61780843B4
:1014A00014F834190E4A50540E480078401C0D4967
:1014B00008700098FEF790FE0020BDE8F88FFFE767
:1014C0000098FEF789FE4220F7E70000C0000020E8
:1014D0003F000000600B0020C8000020AD0000208D
:1014E000AE000020B7000020002400BF00BFFEF7C0
:1014F0006FFE044605480068401C04490860204609
:10150000FEF76AFEFFF7BBFBF1E70000B800002022
:10151000002400BF02E02820FFF7D6FC194800781D
:101520000028F8D0184800686421B0FBF1F0164993
:1015300008600846006828B9002014490870FF2098
:10154000FFF76CFC00BFFEF743FE0446104800683E
:101550001049086000200E4908602046FEF73CFE56
:101560000C48006808490968B0FBF1F0C0F164005C
:1015700006490870FFF7BCFB00F00EF81420FFF7D7
:10158000A3FCE0E7A8000020A00000209C000020B1
:10159000B8000020A40000207CB5002514E06946B6
:1015A0002846FFF7A7FB064666B9094850F82540CC
:1015B00044B1012C06D0D4E9020100EB8100606443
:1015C0000198A064681CC5B23F2DE8D97CBD00001D
:1015D000600B002002F0010343B102F002032BB1C3
:1015E00002E0491E002308C00029FAD1704700001C
:1015F00029B1064AD2690243044BDA6104E0034A86
:10160000D2698243014BDA6170470000001002404A
:1016100029B1064A12690243044B1A6104E0034AE5
:1016200012698243014B1A617047000000100240AA
:1016300029B1064A92690243044B9A6104E0034AC5
:1016400092698243014B9A6170470000001002408A
:1016500029B1064AD2680243044BDA6004E0034A27
:10166000D2688243014BDA607047000000100240EC
:1016700030B500210022002400232D4D6D6805F0B7
:101680000C0121B1042905D0082923D105E0294DF9
:10169000056022E0274D05601FE0254D6D6805F4CB
:1016A0007012234D6D6805F48034022505EB9242DB
:1016B0001CB9214D554305600BE01D4D6D6805F4C7
:1016C00000351DB11C4D5543056002E0194D5543D1
:1016D000056002E0174D056000BF00BF144D6D6846
:1016E00005F0F0010909154D6B5C0568DD404560AA
:1016F0000F4D6D6805F4E061090A104D6B5C45689B
:10170000DD4085600A4D6D6805F46051C90A0B4DD6
:101710006B5C4568DD40C560054D6D6805F4404172
:10172000890B074D6B5CC568B5FBF3F5056130BDF2
:101730000010024000127A0000093D007C000020E9
:101740008C000020704710B500F002F810BD0000BA
:101750000CB50020019000903348006840F48030C0
:101760003149086000BF3048006800F40030009044
:101770000198401C0190009818B90198B0F5A06F2D
:10178000F1D12948006800F4003010B10120009028
:1017900001E0002000900098012843D12348006810
:1017A00040F01000214908600846006820F003005E
:1017B00008600846006840F0020008601A48406867
:1017C000194948600846406848600846406840F447
:1017D000806048600846406820F47C1048600846F5
:1017E000406840F4E81048600846006840F08070A7
:1017F000086000BF0C48006800F000700028F9D0B5
:101800000948406820F003000749486008464068DE
:1018100040F00200486000BF0348406800F00C0040
:101820000828F9D10CBD0000001002400020024041
:10183000042808D14FF0E021096941F004014FF07C
:10184000E022116107E04FF0E021096921F0040175
:101850004FF0E0221161704710B50548007801286B
:1018600005D1FFF769F8FFF76BFBFFF777F810BDBD
:10187000B600002010B51348006840F0010011497F
:10188000086008464068104908400E49486008460C
:1018900000680E4908400B4908600846006820F4BB
:1018A000802008600846406820F4FE0048604FF43D
:1018B0001F008860FFF747FF4FF000600449086091
:1018C00010BD0000001002400000FFF8FFFFF6FE10
:1018D00008ED00E010B540F22551064800F0BBF9D4
:1018E00030B10448001D0088C1B2034800F050FA2E
:1018F00010BD0000003801405400002010B504461F
:10190000E4B901210520FFF793FE01218803FFF7C9
:101910008FFE4FF40070184908801820C87003200B
:1019200088701648FEF7F0FD4FF480601249088079
:101930000420C8701148FEF7E7FD1BE0012C19D107
:1019400001210820FFF774FE01218803FFF770FED4
:101950004020094908801820C87003208870084872
:10196000FEF7D2FD8020044908800420C870044896
:10197000FEF7CAFD10BD00007800002000080140FD
:10198000000C014010B540F22551064800F063F903
:1019900030B10448001D0088C1B2034800F0F8F9D6
:1019A00010BD0000004400406000002010B5044657
:1019B00001214804FFF71CFE022C1AD1012104204A
:1019C000FFF736FE01214804FFF712FE04201749F5
:1019D00008801820C870032088701548FEF794FD11
:1019E0000820124908800420C8701148FEF78CFDB9
:1019F0001BE0032C19D101212020FFF719FE012142
:101A00004804FFF7F5FD2020084908801820C87019
:101A1000032088700748FEF777FD402003490880BF
:101A20000420C8700348FEF76FFD10BD7800002049
:101A3000000801400014014010B540F2255106484D
:101A400000F009F930B10448001D0088C1B2034814
:101A500000F09EF910BD0000004800406C0000201E
:101A600010B5044601218804FFF7C2FD042C1AD1E9
:101A700001210820FFF7DCFD01218804FFF7D8FDD4
:101A80002002284908801820C87003208870264842
:101A9000FEF73AFD6002234908800420C8702248FE
:101AA000FEF732FD3CE0052C1CD101211020FFF790
:101AB000BFFD01218804FFF7BBFD4FF48060194989
:101AC00008801820C870032088701848FEF71CFD95
:101AD0004FF40060134908800420C8701348FEF7D3
:101AE00013FD1DE0062C1BD101212020FFF7A0FDD6
:101AF00001218804FFF79CFD4FF48070094908809C
:101B00001820C870032088700948FEF7FDFC4FF4C8
:101B10000070044908800420C8700548FEF7F4FCF2
:101B200010BD000078000020000C014000100140B2
:101B30000014014010B50346184600F00FF90446A2
:101B4000E08808B9012010BD0020FCE710B504466C
:101B5000204600F003F90346D8889988884201D1CD
:101B6000012010BD0020FCE721B1828942F400521F
:101B7000828104E082894DF6FF731A4082817047AA
:101B800010B504462048844209D101218803FFF79B
:101B90005FFD00214FF48040FFF75AFD32E01B4803
:101BA000844209D101214804FFF732FD00214FF49E
:101BB0000030FFF72DFD25E01548844209D10121B1
:101BC0008804FFF725FD00214FF48020FFF720FD5A
:101BD00018E01048844209D10121C804FFF718FD1C
:101BE00000214FF40020FFF713FD0BE00A48844268
:101BF00008D101210805FFF70BFD00214FF48010EB
:101C0000FFF706FD10BD0000003801400044004011
:101C100000480040004C00400050004073B50646AC
:101C2000304600F09BF80346DD885C890FE0988819
:101C3000A04200D10024186800579DF80410884283
:101C400001D101207CBD601C84B2681E85B2002DCC
:101C5000EDDC0020F6E770B50246002400230025E5
:101C6000002040F66A16B14200D100BFC1F3421510
:101C700001F01F03012606FA03F3012D02D1968914
:101C8000334006E0022D02D1168A334001E0968AE5
:101C900033400C12012606FA04F41688344013B1BE
:101CA0000CB1012000E0002070BD30B504460025D5
:101CB000204600F053F80346D88800280EDD5889E6
:101CC0009988884201D10020588159891868455661
:101CD0005889401C5881D888401ED880E8B230BD51
:101CE000F0B507460D46164600243846FFF722FF9A
:101CF00040B90A213846FFF791FF28B93846FFF767
:101D000025FF08B90020F0BD0BE03846FFF7CDFFF6
:101D10002855285D0A2802D1601C84B204E0601CAA
:101D200084B2701EA042F0DC00BF0020285520467F
:101D3000E9E700000146064A914200D10020054A29
:101D4000914200D10120044A914200D10220704703
:101D50000038014000440040004800400146064A67
:101D6000914200D10548064A914200D10548064AF1
:101D7000914200D1054870470038014054000020CE
:101D80000044004060000020004800406C0000203B
:101D900010B5C28883889A420FDA028983889A42F2
:101DA00001D1002202814AB2048903681A550289CE
:101DB000521C0281C288521CC28010BDF0B503467D
:101DC000002400260025002040F66A17B94200D101
:101DD00000BF1846C1F3421401F01F06012707FA9D
:101DE00006F5012C01D10C3004E0022C01D1103099
:101DF00000E014301AB107682F43076002E007685B
:101E0000AF430760F0BD00002DE9F04786B00546FE
:101E10000E460024A24600BFA1460027B08900B1AB
:101E200000BF2F462C8A4CF6FF700440F088044314
:101E30002C82AC894EF6F3100440B08831890843F7
:101E4000718908430443AC81AC8A4FF6FF400440DB
:101E5000B0890443AC8201A8FFF70AFC1F488742FF
:101E600002D1DDF810A001E0DDF80CA0A88900F493
:101E7000004040B10AEBCA0000EB0A10316849008B
:101E8000B0FBF1F807E00AEBCA0000EB0A1031687A
:101E90008900B0FBF1F86420B8FBF0F004012009E0
:101EA000642101FB1089A88900F4004040B1322070
:101EB00000EBC900B0FBF1F000F00700044308E0BC
:101EC000322000EB09106421B0FBF1F000F00F00AC
:101ED00004432C8106B0BDE8F087000000380140C3
:101EE00070B586B004460D461646029633488442C5
:101EF00012D12846FFF702FD25208DF804000020AE
:101F0000ADF814000C20ADF812000020ADF8100060
:101F1000ADF80E00ADF80C002948844212D12846D5
:101F2000FFF744FD26208DF804000020ADF81400D2
:101F30000C20ADF812000020ADF81000ADF80E0036
:101F4000ADF80C001F48844212D12846FFF788FDE7
:101F500027208DF804000020ADF814000C20ADF807
:101F600012000020ADF81000ADF80E00ADF80C0026
:101F700000212046FFF7F8FD2046FFF701FE02A9E9
:101F80002046FFF741FF01212046FFF7EDFD01222A
:101F900040F225512046FFF711FF01208DF8070080
:101FA00000208DF805002046FFF7C4FE8DF80600DE
:101FB00001A8FEF767FC06B070BD000000380140C4
:101FC000004400400048004000BFFEE710B56FF03D
:101FD0000400FFF72DFC104800681049B0FBF1F039
:101FE0000F4908700C4800680C49B0FBF1F441F24D
:101FF0008830444305200B4908804FF0E0200069F9
:1020000040F002004FF0E021086108464461006999
:1020100040F00100086110BD3800002000127A0075
:102020004C0000204E00002070B504460F48007898
:10203000A0B10F48007888B90E480088844206DBBA
:102040000C48008894FBF0F5284600F01DF809487C
:10205000008894FBF0F100FB114084B24FF47A71D8
:1020600004FB01F000F016F870BD0000B60000207F
:10207000A90000204E00002010B5FEF7DDFC10BDC9
:1020800010B5FEF7F9FC10BD10B504462046FEF76A
:102090001BFF10BD2DE9F047074600264FF0E0205A
:1020A000D0F814901148007807FB00F800BFFFF744
:1020B000E3FF4FF0E020856911E04FF0E0208469F4
:1020C000AC420CD0AC4202D2281B064403E0A9EB80
:1020D0000400284406442546464500D300E0ECE7CA
:1020E00000BFFFF7CDFFBDE8F08700004C000020E7
:1020F0000246012A1FD10C291BD2DFE801F0060895
:102100000A0C1A1A0E101214161801207047022019
:10211000FCE70320FAE70420F8E70120F6E70220B5
:10212000F4E70120F2E70220F0E70320EEE70420C5
:10213000ECE70020EAE7022A09D111B1012904D114
:1021400001E00320E2E70420E0E70020DEE70020D2
:10215000DCE700000246012A11D1042901DA8007D8
:102160007047072903DD0C2901DA0A48F8E7052939
:1021700003DD082901DA0848F2E70020F0E7022A27
:1021800005D1022901DA0448EAE70020E8E7002047
:10219000E6E70000002C0140000400400246012A4E
:1021A00011D1042901DA02207047072903DD0C2927
:1021B00001DA0120F8E7052903DD082901DA032007
:1021C000F2E70020F0E7022A05D1022901DA032014
:1021D000EAE70020E8E70020E6E700002DE9F0410B
:1021E00004460D46164629460022072D03DDA1F1BF
:1021F0000807B9B20122012C0BD1214FBF6947F06A
:102200000407DFF87CC0CCF818701E4F07EB820083
:102210001AE0022C0BD11A4FBF6947F00807DFF80C
:1022200060C0CCF81870184F07EB82000CE0032C4C
:102230000AD1134FBF6947F01007DFF844C0CCF84C
:102240001870124F07EB820007684FEA81084FF0C1
:102250000F0C0CFA08FC27EA0C0707608F0006FA3F
:1022600007F74FF0020C0CEB810C03FA0CFC47EA69
:102270000C07D0F800C047EA0C070760BDE8F08102
:102280000010024000080140000C01400010014015
:10229000F8B50446002504F0F006F02000EA041723
:1022A00046F004008DF800008DF8016047F004004E
:1022B0008DF8020047F008008DF8030000BF05E02C
:1022C0001DF8050000F028F8681CC5B2042DF7DBE6
:1022D000F8BDF8B50446002504F0F006F02000EA49
:1022E000041746F00D008DF8000046F009008DF847
:1022F000010047F00D008DF8020047F009008DF84D
:10230000030000BF05E01DF8050000F005F8681C9B
:10231000C5B2042DF7DBF8BD10B504460121134802
:10232000FEF7A2F900BF12491048FEF77CF9002819
:10233000F9D000224E210D48FEF75EFA00BF0D498C
:102340000A48FEF770F90028F9D021460748FEF741
:102350005CFA00BF0749891C0448FEF764F90028AD
:10236000F8D001210148FEF78BF910BD0054004060
:10237000010003008200070010B53320FFF788FF3B
:102380000A20FFF751FE3220FFF782FF3220FFF7CD
:102390004BFE2820FFF77CFF3220FFF745FE01208F
:1023A000FFF776FF3220FFF73FFE0620FFF770FFB2
:1023B0003220FFF739FE0C20FFF76AFF3220FFF7CB
:1023C00033FE0220FFF764FF3220FFF72DFE10BD21
:1023D00010B5044603E014F8010BFFF77AFF2078EC
:1023E0000028F8D110BD000011E00948007800F085
:1023F000010030B10020074908608220FFF714FE79
:1024000005E00120034908608220FFF70DFEECE79C
:10241000180000209481214210B54FF4A060FEF70F
:1024200069FAFFF7D3FDFEF7F3F94FF4E13200212B
:102430000848FFF755FDFEF7A5F9FEF765FA0A23F0
:10244000054A00210548FEF76DFBFEF745FB00201D
:1024500010BD000000380140D401002025270008ED
:102460009AB05A220821012000F088F873E0642213
:1024700001A93948FFF734FC002868D0002037490B
:10248000086037490860374908603749086001A982
:1024900035480068401C085C3A280CD101A8324934
:1024A0000968405C30382D4908602F480068801C5E
:1024B0002D49086015E001A92B480068401C095C03
:1024C00001A8294A1268805C303800EB800001EBDB
:1024D000400030382149086023480068C01C224968
:1024E000086001A920480068401C085C3A280CD10B
:1024F00001A81D490968405C3038194908601A482C
:102500000068801C1849086015E001A91648006899
:10251000401C095C01A8144A1268805C303800EB4A
:10252000800001EB400030380D4908600E4800681B
:10253000C01C0D4908600A48036808480BA10268DE
:102540000D48FDF79FFEC820FFF76EFD03E04FF436
:102550002F70FFF769FD8AE7003801401400002062
:10256000180000201C0000200C00002054696D653C
:102570003A2025643A256400D80500202DE9F04171
:1025800006460F461446B42C02DD0020BDE8F0815B
:1025900004EB440000EBC40000F5C8752B4645F27F
:1025A00008223946304600F0FBF80120EEE7000033
:1025B00000202D49088056E02C480068D0B92C48EE
:1025C0000088B8B928480088052810DA0120284971
:1025D00008802848008868B9002208210120FFF7F8
:1025E000CDFF21480088401C1F49088002E00520DB
:1025F0001D4908801D48001D0068D0B91D4800888D
:10260000B8B919480088002810DD01201949088050
:102610001748008868B9002208210120FFF7AEFFA3
:1026200011480088401E1049088002E000200E4931
:1026300008800F480088012811D10E480088012821
:102640000DD14FF47A70FFF7EFFC5A2208210120D8
:10265000FFF794FF002006490880064908804FF4E0
:10266000FA70FFF7E1FCA7E7040000203081214267
:102670000600002008000020FFF77EFE38E0FDF78E
:102680003BFF1C4802881CA11D48FDF7FBFD1948B3
:10269000008800280CDC1B48FFF79AFEC020FFF7DB
:1026A000F7FD19A0FFF794FE1548FFF791FE1CE017
:1026B0001048008805280CDB1248FFF789FEC0206F
:1026C000FFF7E6FD12A0FFF783FE0D48FFF780FE3F
:1026D0000BE00C48FFF77CFEC020FFF7D9FD0EA0F1
:1026E000FFF776FE0648FFF773FEC820FFF79CFC55
:1026F000C5E700000400002025642063617200002B
:1027000032000020D8050020454D5054593A200091
:1027100046756C6C3A200000417661696C61626CB0
:10272000653A200070B50446002500BF0020FEF782
:102730005DF912490860FDF74BFD05460323104A79
:1027400000211048FEF7EEF905230F4A00210F483B
:10275000FEF7E8F908230E4A00210E48FEF7E2F9D9
:1027600006230D4A00210D48FEF7DCF90A20FEF78A
:1027700055FB2846FDF730FD70BD0000000000202D
:10278000D4020020E9230008D403002079260008A1
:10279000D4040020B1250008D405002061240008DD
:1027A0002DE9F04781468A4617461D465146484660
:1027B000FFF7D0FC044651464846FFF7EFFC804641
:1027C00051464846FFF794FC0646208C711E8A004D
:1027D000012191400840002849D1B8F1010F06D1EC
:1027E0002E48806940F400602C49886108E02B483D
:1027F000C069A8F1020101228A4010432749C8613B
:102800000223032251464846FFF7E8FC4720208573
:10281000012E06D0022E09D0032E0CD0042E14D186
:102820000EE0208B40F0600020830EE0208B40F40F
:10283000C040208309E0A08B40F06000A08304E04A
:10284000A08B40F4C040A08300BF00BF208C711E4D
:102850008A000121914008432084B4F8440040F4E8
:102860000040A4F84400208840F001002080781E39
:10287000A085012E06D0022E06D0032E06D0042EEF
:1028800009D105E0A58606E0258704E0A58702E0DA
:10289000A4F8405000BF00BFBDE8F0870010024020
:1028A000000001000200010003000100020001001D
:1028B0000400010002000100030001000200010009
:1028C00005000100020001000300010002000100F8
:1028D00004000100020001000300010002000100E9
:1028E00006000100020001000300010002000100D7
:1028F00004000100020001000300010002000100C9
:1029000005000100020001000300010002000100B7
:1029100004000100020001000300010002000100A8
:102920000700010002000100030001000200010095
:102930000400010002000100030001000200010088
:102940000500010002000100030001000200010077
:102950000400010002000100030001000200010068
:102960000600010002000100030001000200010056
:102970000400010002000100030001000200010048
:102980000500010002000100030001000200010037
:102990000400010002000100030001000200010028
:1029A000C029000800000020D8000000280100080D
:1029B000982A0008D80000205016000044010008A2
:1029C0000000000000000000000000000000000007
:1029D00001000000000000000000000000000000F6
:1029E00000000000000000000000000000000000E7
:1029F000000000000000000000A24A0400000000E7
:102A0000000000000102030406070809000000009E
:102A100000000000E8050020200000000000000089
:102A2000080600202000000000000000280600200A
:102A30002000000000000000000000000000000076
:102A40000102030401020304060708090204060840
:102A50000000000000000000000000000000000076
:102A60000000000000000000000000000000000066
:102A70000000000000000000000000000000000056
:102A80000000000000000000000000000000000046
:082A900000000000000000003E
:04000005080001915D
:00000001FF
